{
  "_format": "hh3-artifact-1",
  "contractName": "CardTimerGame",
  "sourceName": "contracts/CardTimerGame.sol",
  "abi": [
    {
      "inputs": [],
      "stateMutability": "payable",
      "type": "constructor"
    },
    {
      "anonymous": false,
      "inputs": [
        {
          "indexed": true,
          "internalType": "uint8",
          "name": "cardId",
          "type": "uint8"
        },
        {
          "indexed": true,
          "internalType": "address",
          "name": "buyer",
          "type": "address"
        },
        {
          "indexed": true,
          "internalType": "address",
          "name": "previousOwner",
          "type": "address"
        },
        {
          "indexed": false,
          "internalType": "uint256",
          "name": "paidAmount",
          "type": "uint256"
        },
        {
          "indexed": false,
          "internalType": "uint256",
          "name": "newPrice",
          "type": "uint256"
        },
        {
          "indexed": false,
          "internalType": "uint256",
          "name": "newEndTime",
          "type": "uint256"
        }
      ],
      "name": "CardBought",
      "type": "event"
    },
    {
      "anonymous": false,
      "inputs": [
        {
          "indexed": true,
          "internalType": "uint8",
          "name": "cardId",
          "type": "uint8"
        },
        {
          "indexed": false,
          "internalType": "uint256",
          "name": "price",
          "type": "uint256"
        },
        {
          "indexed": false,
          "internalType": "uint256",
          "name": "duration",
          "type": "uint256"
        }
      ],
      "name": "CardPriceSet",
      "type": "event"
    },
    {
      "anonymous": false,
      "inputs": [],
      "name": "GameReset",
      "type": "event"
    },
    {
      "anonymous": false,
      "inputs": [
        {
          "indexed": true,
          "internalType": "address",
          "name": "winner",
          "type": "address"
        },
        {
          "indexed": false,
          "internalType": "uint256",
          "name": "amount",
          "type": "uint256"
        }
      ],
      "name": "PrizeClaimed",
      "type": "event"
    },
    {
      "stateMutability": "payable",
      "type": "fallback"
    },
    {
      "inputs": [
        {
          "internalType": "uint8",
          "name": "cardId",
          "type": "uint8"
        }
      ],
      "name": "buyCard",
      "outputs": [],
      "stateMutability": "payable",
      "type": "function"
    },
    {
      "inputs": [
        {
          "internalType": "uint256",
          "name": "",
          "type": "uint256"
        }
      ],
      "name": "cards",
      "outputs": [
        {
          "internalType": "uint256",
          "name": "price",
          "type": "uint256"
        },
        {
          "internalType": "address",
          "name": "owner",
          "type": "address"
        },
        {
          "internalType": "uint256",
          "name": "duration",
          "type": "uint256"
        }
      ],
      "stateMutability": "view",
      "type": "function"
    },
    {
      "inputs": [],
      "name": "claimPrize",
      "outputs": [],
      "stateMutability": "nonpayable",
      "type": "function"
    },
    {
      "inputs": [],
      "name": "endTime",
      "outputs": [
        {
          "internalType": "uint256",
          "name": "",
          "type": "uint256"
        }
      ],
      "stateMutability": "view",
      "type": "function"
    },
    {
      "inputs": [],
      "name": "gameActive",
      "outputs": [
        {
          "internalType": "bool",
          "name": "",
          "type": "bool"
        }
      ],
      "stateMutability": "view",
      "type": "function"
    },
    {
      "inputs": [
        {
          "internalType": "uint8",
          "name": "cardId",
          "type": "uint8"
        }
      ],
      "name": "getCard",
      "outputs": [
        {
          "internalType": "uint256",
          "name": "price",
          "type": "uint256"
        },
        {
          "internalType": "address",
          "name": "owner",
          "type": "address"
        },
        {
          "internalType": "uint256",
          "name": "duration",
          "type": "uint256"
        }
      ],
      "stateMutability": "view",
      "type": "function"
    },
    {
      "inputs": [],
      "name": "lastBuyer",
      "outputs": [
        {
          "internalType": "address",
          "name": "",
          "type": "address"
        }
      ],
      "stateMutability": "view",
      "type": "function"
    },
    {
      "inputs": [],
      "name": "lastCardId",
      "outputs": [
        {
          "internalType": "uint8",
          "name": "",
          "type": "uint8"
        }
      ],
      "stateMutability": "view",
      "type": "function"
    },
    {
      "stateMutability": "payable",
      "type": "receive"
    }
  ],
  "bytecode": "0x60806040526001602755633b9aca006026819055505f5f90505b600c8160ff161015610139575f603c8260ff1661003691906101d6565b603c6100429190610217565b9050604051806060016040528060265481526020015f73ffffffffffffffffffffffffffffffffffffffff168152602001828152505f8360ff16600c811061008d5761008c61024a565b5b600302015f820151815f01556020820151816001015f6101000a81548173ffffffffffffffffffffffffffffffffffffffff021916908373ffffffffffffffffffffffffffffffffffffffff160217905550604082015181600201559050508160ff167f24f3c7e3fbac1c2756fcc3178d9ba3e6dfb9d638f1f9f9d118d578dbe973aa6d60265483604051610123929190610286565b60405180910390a2508080600101915050610019565b505f602560156101000a81548160ff0219169083151502179055505f6024819055505f60255f6101000a81548173ffffffffffffffffffffffffffffffffffffffff021916908373ffffffffffffffffffffffffffffffffffffffff1602179055506102ad565b5f819050919050565b7f4e487b71000000000000000000000000000000000000000000000000000000005f52601160045260245ffd5b5f6101e0826101a0565b91506101eb836101a0565b92508282026101f9816101a0565b915082820484148315176102105761020f6101a9565b5b5092915050565b5f610221826101a0565b915061022c836101a0565b9250828201905080821115610244576102436101a9565b5b92915050565b7f4e487b71000000000000000000000000000000000000000000000000000000005f52603260045260245ffd5b610280816101a0565b82525050565b5f6040820190506102995f830185610277565b6102a66020830184610277565b9392505050565b61145d806102ba5f395ff3fe60806040526004361061007e575f3560e01c806370740ac91161004d57806370740ac91461012f5780637239d4ab146101455780638dc107681461016f578063f020044f146101ad5761007f565b806309004eb1146100815780630ad2db6d146100bf57806313ecfbfa146100db5780633197cbb6146101055761007f565b5b005b34801561008c575f5ffd5b506100a760048036038101906100a29190610c32565b6101d7565b6040516100b693929190610cb4565b60405180910390f35b6100d960048036038101906100d49190610c32565b610278565b005b3480156100e6575f5ffd5b506100ef610730565b6040516100fc9190610ce9565b60405180910390f35b348015610110575f5ffd5b50610119610755565b6040516101269190610d02565b60405180910390f35b34801561013a575f5ffd5b5061014361075b565b005b348015610150575f5ffd5b50610159610a40565b6040516101669190610d2a565b60405180910390f35b34801561017a575f5ffd5b5061019560048036038101906101909190610d6d565b610a53565b6040516101a493929190610cb4565b60405180910390f35b3480156101b8575f5ffd5b506101c1610a9e565b6040516101ce9190610db2565b60405180910390f35b5f5f5f600c8460ff1610610220576040517f08c379a000000000000000000000000000000000000000000000000000000000815260040161021790610e25565b60405180910390fd5b5f5f8560ff16600c811061023757610236610e43565b5b600302019050805f0154816001015f9054906101000a900473ffffffffffffffffffffffffffffffffffffffff168260020154935093509350509193909250565b6001602754146102bd576040517f08c379a00000000000000000000000000000000000000000000000000000000081526004016102b490610eba565b60405180910390fd5b6002602781905550600c8160ff161061030b576040517f08c379a000000000000000000000000000000000000000000000000000000000815260040161030290610e25565b60405180910390fd5b602560159054906101000a900460ff1615610365576024544210610364576040517f08c379a000000000000000000000000000000000000000000000000000000000815260040161035b90610f22565b60405180910390fd5b5b5f5f8260ff16600c811061037c5761037b610e43565b5b6003020190505f6002825f01546103939190610f9a565b90505f825f01549050803410156103df576040517f08c379a00000000000000000000000000000000000000000000000000000000081526004016103d690611014565b60405180910390fd5b5f836001015f9054906101000a900473ffffffffffffffffffffffffffffffffffffffff1690505f5f90505f73ffffffffffffffffffffffffffffffffffffffff168273ffffffffffffffffffffffffffffffffffffffff161461050a57600260038561044c9190611032565b6104569190610f9a565b9050804710610509575f8273ffffffffffffffffffffffffffffffffffffffff1682604051610484906110a0565b5f6040518083038185875af1925050503d805f81146104be576040519150601f19603f3d011682016040523d82523d5f602084013e6104c3565b606091505b5050905080610507576040517f08c379a00000000000000000000000000000000000000000000000000000000081526004016104fe906110fe565b60405180910390fd5b505b5b33856001015f6101000a81548173ffffffffffffffffffffffffffffffffffffffff021916908373ffffffffffffffffffffffffffffffffffffffff1602179055506002836105599190611032565b855f0181905550846002015442610570919061111c565b6024819055503360255f6101000a81548173ffffffffffffffffffffffffffffffffffffffff021916908373ffffffffffffffffffffffffffffffffffffffff16021790555085602560146101000a81548160ff021916908360ff1602179055506001602560156101000a81548160ff0219169083151502179055505f83346105f9919061114f565b90505f8111156106ad575f3373ffffffffffffffffffffffffffffffffffffffff1682604051610628906110a0565b5f6040518083038185875af1925050503d805f8114610662576040519150601f19603f3d011682016040523d82523d5f602084013e610667565b606091505b50509050806106ab576040517f08c379a00000000000000000000000000000000000000000000000000000000081526004016106a2906111cc565b60405180910390fd5b505b8273ffffffffffffffffffffffffffffffffffffffff163373ffffffffffffffffffffffffffffffffffffffff168860ff167f0e442dd4f1838b2e8b53ecdf1b2b4733589797a1b975bf600f7dc05d2dfcbbd9878a5f0154602454604051610717939291906111ea565b60405180910390a4505050505050600160278190555050565b60255f9054906101000a900473ffffffffffffffffffffffffffffffffffffffff1681565b60245481565b6001602754146107a0576040517f08c379a000000000000000000000000000000000000000000000000000000000815260040161079790610eba565b60405180910390fd5b6002602781905550602560159054906101000a900460ff166107f7576040517f08c379a00000000000000000000000000000000000000000000000000000000081526004016107ee90611269565b60405180910390fd5b602454421161083b576040517f08c379a0000000000000000000000000000000000000000000000000000000008152600401610832906112d1565b60405180910390fd5b5f73ffffffffffffffffffffffffffffffffffffffff1660255f9054906101000a900473ffffffffffffffffffffffffffffffffffffffff1673ffffffffffffffffffffffffffffffffffffffff16036108ca576040517f08c379a00000000000000000000000000000000000000000000000000000000081526004016108c190611339565b60405180910390fd5b5f4790505f8111610910576040517f08c379a0000000000000000000000000000000000000000000000000000000008152600401610907906113a1565b60405180910390fd5b5f60255f9054906101000a900473ffffffffffffffffffffffffffffffffffffffff16905061093d610ab1565b5f8173ffffffffffffffffffffffffffffffffffffffff1683604051610962906110a0565b5f6040518083038185875af1925050503d805f811461099c576040519150601f19603f3d011682016040523d82523d5f602084013e6109a1565b606091505b50509050806109e5576040517f08c379a00000000000000000000000000000000000000000000000000000000081526004016109dc90611409565b60405180910390fd5b8173ffffffffffffffffffffffffffffffffffffffff167f95681e512bc0fe659e195e06c283eada494316f3d801213e48e7101af92bf77084604051610a2b9190610d02565b60405180910390a25050506001602781905550565b602560149054906101000a900460ff1681565b5f81600c8110610a61575f80fd5b600302015f91509050805f015490806001015f9054906101000a900473ffffffffffffffffffffffffffffffffffffffff16908060020154905083565b602560159054906101000a900460ff1681565b5f5f90505b600c8160ff161015610b4d576026545f8260ff16600c8110610adb57610ada610e43565b5b600302015f01819055505f5f8260ff16600c8110610afc57610afb610e43565b5b600302016001015f6101000a81548173ffffffffffffffffffffffffffffffffffffffff021916908373ffffffffffffffffffffffffffffffffffffffff1602179055508080600101915050610ab6565b505f602560156101000a81548160ff0219169083151502179055505f60255f6101000a81548173ffffffffffffffffffffffffffffffffffffffff021916908373ffffffffffffffffffffffffffffffffffffffff1602179055505f6024819055505f602560146101000a81548160ff021916908360ff1602179055507fc6976b6410888b44c765590c8368eb4a60e0431d4ad683c8a53ea85a8479f22e60405160405180910390a1565b5f5ffd5b5f60ff82169050919050565b610c1181610bfc565b8114610c1b575f5ffd5b50565b5f81359050610c2c81610c08565b92915050565b5f60208284031215610c4757610c46610bf8565b5b5f610c5484828501610c1e565b91505092915050565b5f819050919050565b610c6f81610c5d565b82525050565b5f73ffffffffffffffffffffffffffffffffffffffff82169050919050565b5f610c9e82610c75565b9050919050565b610cae81610c94565b82525050565b5f606082019050610cc75f830186610c66565b610cd46020830185610ca5565b610ce16040830184610c66565b949350505050565b5f602082019050610cfc5f830184610ca5565b92915050565b5f602082019050610d155f830184610c66565b92915050565b610d2481610bfc565b82525050565b5f602082019050610d3d5f830184610d1b565b92915050565b610d4c81610c5d565b8114610d56575f5ffd5b50565b5f81359050610d6781610d43565b92915050565b5f60208284031215610d8257610d81610bf8565b5b5f610d8f84828501610d59565b91505092915050565b5f8115159050919050565b610dac81610d98565b82525050565b5f602082019050610dc55f830184610da3565b92915050565b5f82825260208201905092915050565b7f496e76616c6964206361726420696400000000000000000000000000000000005f82015250565b5f610e0f600f83610dcb565b9150610e1a82610ddb565b602082019050919050565b5f6020820190508181035f830152610e3c81610e03565b9050919050565b7f4e487b71000000000000000000000000000000000000000000000000000000005f52603260045260245ffd5b7f5265656e7472616e7400000000000000000000000000000000000000000000005f82015250565b5f610ea4600983610dcb565b9150610eaf82610e70565b602082019050919050565b5f6020820190508181035f830152610ed181610e98565b9050919050565b7f54696d657220657870697265642c20636c61696d207072697a652066697273745f82015250565b5f610f0c602083610dcb565b9150610f1782610ed8565b602082019050919050565b5f6020820190508181035f830152610f3981610f00565b9050919050565b7f4e487b71000000000000000000000000000000000000000000000000000000005f52601260045260245ffd5b7f4e487b71000000000000000000000000000000000000000000000000000000005f52601160045260245ffd5b5f610fa482610c5d565b9150610faf83610c5d565b925082610fbf57610fbe610f40565b5b828204905092915050565b7f496e73756666696369656e74207061796d656e740000000000000000000000005f82015250565b5f610ffe601483610dcb565b915061100982610fca565b602082019050919050565b5f6020820190508181035f83015261102b81610ff2565b9050919050565b5f61103c82610c5d565b915061104783610c5d565b925082820261105581610c5d565b9150828204841483151761106c5761106b610f6d565b5b5092915050565b5f81905092915050565b50565b5f61108b5f83611073565b91506110968261107d565b5f82019050919050565b5f6110aa82611080565b9150819050919050565b7f5061796f7574206661696c6564000000000000000000000000000000000000005f82015250565b5f6110e8600d83610dcb565b91506110f3826110b4565b602082019050919050565b5f6020820190508181035f830152611115816110dc565b9050919050565b5f61112682610c5d565b915061113183610c5d565b925082820190508082111561114957611148610f6d565b5b92915050565b5f61115982610c5d565b915061116483610c5d565b925082820390508181111561117c5761117b610f6d565b5b92915050565b7f526566756e64206661696c6564000000000000000000000000000000000000005f82015250565b5f6111b6600d83610dcb565b91506111c182611182565b602082019050919050565b5f6020820190508181035f8301526111e3816111aa565b9050919050565b5f6060820190506111fd5f830186610c66565b61120a6020830185610c66565b6112176040830184610c66565b949350505050565b7f4e6f206163746976652067616d650000000000000000000000000000000000005f82015250565b5f611253600e83610dcb565b915061125e8261121f565b602082019050919050565b5f6020820190508181035f83015261128081611247565b9050919050565b7f54696d6572206e6f7420657870697265640000000000000000000000000000005f82015250565b5f6112bb601183610dcb565b91506112c682611287565b602082019050919050565b5f6020820190508181035f8301526112e8816112af565b9050919050565b7f4e6f206275796572207265636f726465640000000000000000000000000000005f82015250565b5f611323601183610dcb565b915061132e826112ef565b602082019050919050565b5f6020820190508181035f83015261135081611317565b9050919050565b7f4e6f2066756e64730000000000000000000000000000000000000000000000005f82015250565b5f61138b600883610dcb565b915061139682611357565b602082019050919050565b5f6020820190508181035f8301526113b88161137f565b9050919050565b7f5072697a65207472616e73666572206661696c656400000000000000000000005f82015250565b5f6113f3601583610dcb565b91506113fe826113bf565b602082019050919050565b5f6020820190508181035f830152611420816113e7565b905091905056fea264697066735822122003737320d445f18701e49ffabdbfdae58b9bcbb7b3293ea1319f8b150c6702dc64736f6c634300081c0033",
  "linkReferences": {},
  "deployedLinkReferences": {},
  "immutableReferences": {},
  "inputSourceName": "project/contracts/CardTimerGame.sol",
  "buildInfoId": "solc-0_8_28-23035813444cff48994424404b7dc6fa2f2fcf55"
}