{
  "_format": "hh3-artifact-1",
  "contractName": "CardTimerGame",
  "sourceName": "contracts/CardTimerGame.sol",
  "abi": [
    {
      "inputs": [],
      "stateMutability": "payable",
      "type": "constructor"
    },
    {
      "anonymous": false,
      "inputs": [
        {
          "indexed": true,
          "internalType": "uint8",
          "name": "cardId",
          "type": "uint8"
        },
        {
          "indexed": true,
          "internalType": "address",
          "name": "buyer",
          "type": "address"
        },
        {
          "indexed": true,
          "internalType": "address",
          "name": "previousOwner",
          "type": "address"
        },
        {
          "indexed": false,
          "internalType": "uint256",
          "name": "paidAmount",
          "type": "uint256"
        },
        {
          "indexed": false,
          "internalType": "uint256",
          "name": "newPrice",
          "type": "uint256"
        },
        {
          "indexed": false,
          "internalType": "uint256",
          "name": "newEndTime",
          "type": "uint256"
        }
      ],
      "name": "CardBought",
      "type": "event"
    },
    {
      "anonymous": false,
      "inputs": [
        {
          "indexed": true,
          "internalType": "uint8",
          "name": "cardId",
          "type": "uint8"
        },
        {
          "indexed": false,
          "internalType": "uint256",
          "name": "price",
          "type": "uint256"
        },
        {
          "indexed": false,
          "internalType": "uint256",
          "name": "duration",
          "type": "uint256"
        }
      ],
      "name": "CardPriceSet",
      "type": "event"
    },
    {
      "anonymous": false,
      "inputs": [],
      "name": "GameReset",
      "type": "event"
    },
    {
      "anonymous": false,
      "inputs": [
        {
          "indexed": true,
          "internalType": "address",
          "name": "winner",
          "type": "address"
        },
        {
          "indexed": false,
          "internalType": "uint256",
          "name": "amount",
          "type": "uint256"
        }
      ],
      "name": "PrizeClaimed",
      "type": "event"
    },
    {
      "stateMutability": "payable",
      "type": "fallback"
    },
    {
      "inputs": [
        {
          "internalType": "uint8",
          "name": "cardId",
          "type": "uint8"
        }
      ],
      "name": "buyCard",
      "outputs": [],
      "stateMutability": "payable",
      "type": "function"
    },
    {
      "inputs": [
        {
          "internalType": "uint256",
          "name": "",
          "type": "uint256"
        }
      ],
      "name": "cards",
      "outputs": [
        {
          "internalType": "uint256",
          "name": "price",
          "type": "uint256"
        },
        {
          "internalType": "address",
          "name": "owner",
          "type": "address"
        },
        {
          "internalType": "uint256",
          "name": "duration",
          "type": "uint256"
        }
      ],
      "stateMutability": "view",
      "type": "function"
    },
    {
      "inputs": [],
      "name": "claimPrize",
      "outputs": [],
      "stateMutability": "nonpayable",
      "type": "function"
    },
    {
      "inputs": [],
      "name": "endTime",
      "outputs": [
        {
          "internalType": "uint256",
          "name": "",
          "type": "uint256"
        }
      ],
      "stateMutability": "view",
      "type": "function"
    },
    {
      "inputs": [],
      "name": "gameActive",
      "outputs": [
        {
          "internalType": "bool",
          "name": "",
          "type": "bool"
        }
      ],
      "stateMutability": "view",
      "type": "function"
    },
    {
      "inputs": [
        {
          "internalType": "uint8",
          "name": "cardId",
          "type": "uint8"
        }
      ],
      "name": "getCard",
      "outputs": [
        {
          "internalType": "uint256",
          "name": "price",
          "type": "uint256"
        },
        {
          "internalType": "address",
          "name": "owner",
          "type": "address"
        },
        {
          "internalType": "uint256",
          "name": "duration",
          "type": "uint256"
        }
      ],
      "stateMutability": "view",
      "type": "function"
    },
    {
      "inputs": [],
      "name": "lastBuyer",
      "outputs": [
        {
          "internalType": "address",
          "name": "",
          "type": "address"
        }
      ],
      "stateMutability": "view",
      "type": "function"
    },
    {
      "inputs": [],
      "name": "lastCardId",
      "outputs": [
        {
          "internalType": "uint8",
          "name": "",
          "type": "uint8"
        }
      ],
      "stateMutability": "view",
      "type": "function"
    },
    {
      "inputs": [],
      "name": "resetGame",
      "outputs": [],
      "stateMutability": "nonpayable",
      "type": "function"
    },
    {
      "stateMutability": "payable",
      "type": "receive"
    }
  ],
  "bytecode": "0x608060405260016026555f633b9aca0090505f5f90505b600c8160ff161015610132575f603c8260ff1661003391906101d0565b603c61003f9190610211565b905060405180606001604052808481526020015f73ffffffffffffffffffffffffffffffffffffffff168152602001828152505f8360ff16600c811061008857610087610244565b5b600302015f820151815f01556020820151816001015f6101000a81548173ffffffffffffffffffffffffffffffffffffffff021916908373ffffffffffffffffffffffffffffffffffffffff160217905550604082015181600201559050508160ff167f24f3c7e3fbac1c2756fcc3178d9ba3e6dfb9d638f1f9f9d118d578dbe973aa6d848360405161011c929190610280565b60405180910390a2508080600101915050610016565b505f602560156101000a81548160ff0219169083151502179055505f6024819055505f60255f6101000a81548173ffffffffffffffffffffffffffffffffffffffff021916908373ffffffffffffffffffffffffffffffffffffffff160217905550506102a7565b5f819050919050565b7f4e487b71000000000000000000000000000000000000000000000000000000005f52601160045260245ffd5b5f6101da8261019a565b91506101e58361019a565b92508282026101f38161019a565b9150828204841483151761020a576102096101a3565b5b5092915050565b5f61021b8261019a565b91506102268361019a565b925082820190508082111561023e5761023d6101a3565b5b92915050565b7f4e487b71000000000000000000000000000000000000000000000000000000005f52603260045260245ffd5b61027a8161019a565b82525050565b5f6040820190506102935f830185610271565b6102a06020830184610271565b9392505050565b61157b806102b45f395ff3fe608060405260043610610089575f3560e01c806370740ac91161005857806370740ac91461013a5780637239d4ab146101505780638dc107681461017a578063bb472219146101b8578063f020044f146101ce5761008a565b806309004eb11461008c5780630ad2db6d146100ca57806313ecfbfa146100e65780633197cbb6146101105761008a565b5b005b348015610097575f5ffd5b506100b260048036038101906100ad9190610ce8565b6101f8565b6040516100c193929190610d6a565b60405180910390f35b6100e460048036038101906100df9190610ce8565b610299565b005b3480156100f1575f5ffd5b506100fa61073d565b6040516101079190610d9f565b60405180910390f35b34801561011b575f5ffd5b50610124610762565b6040516101319190610db8565b60405180910390f35b348015610145575f5ffd5b5061014e610768565b005b34801561015b575f5ffd5b50610164610ac2565b6040516101719190610de0565b60405180910390f35b348015610185575f5ffd5b506101a0600480360381019061019b9190610e23565b610ad5565b6040516101af93929190610d6a565b60405180910390f35b3480156101c3575f5ffd5b506101cc610b20565b005b3480156101d9575f5ffd5b506101e2610c9b565b6040516101ef9190610e68565b60405180910390f35b5f5f5f600c8460ff1610610241576040517f08c379a000000000000000000000000000000000000000000000000000000000815260040161023890610edb565b60405180910390fd5b5f5f8560ff16600c811061025857610257610ef9565b5b600302019050805f0154816001015f9054906101000a900473ffffffffffffffffffffffffffffffffffffffff168260020154935093509350509193909250565b6001602654146102de576040517f08c379a00000000000000000000000000000000000000000000000000000000081526004016102d590610f70565b60405180910390fd5b6002602681905550600c8160ff161061032c576040517f08c379a000000000000000000000000000000000000000000000000000000000815260040161032390610edb565b60405180910390fd5b602560159054906101000a900460ff1615610386576024544210610385576040517f08c379a000000000000000000000000000000000000000000000000000000000815260040161037c90610fd8565b60405180910390fd5b5b5f5f8260ff16600c811061039d5761039c610ef9565b5b6003020190505f815f01549050803410156103ed576040517f08c379a00000000000000000000000000000000000000000000000000000000081526004016103e490611040565b60405180910390fd5b5f826001015f9054906101000a900473ffffffffffffffffffffffffffffffffffffffff1690505f5f90505f73ffffffffffffffffffffffffffffffffffffffff168273ffffffffffffffffffffffffffffffffffffffff161461051857600260038461045a919061108b565b61046491906110f9565b9050804710610517575f8273ffffffffffffffffffffffffffffffffffffffff168260405161049290611156565b5f6040518083038185875af1925050503d805f81146104cc576040519150601f19603f3d011682016040523d82523d5f602084013e6104d1565b606091505b5050905080610515576040517f08c379a000000000000000000000000000000000000000000000000000000000815260040161050c906111b4565b60405180910390fd5b505b5b33846001015f6101000a81548173ffffffffffffffffffffffffffffffffffffffff021916908373ffffffffffffffffffffffffffffffffffffffff160217905550600283610567919061108b565b845f018190555083600201544261057e91906111d2565b6024819055503360255f6101000a81548173ffffffffffffffffffffffffffffffffffffffff021916908373ffffffffffffffffffffffffffffffffffffffff16021790555084602560146101000a81548160ff021916908360ff1602179055506001602560156101000a81548160ff0219169083151502179055505f83346106079190611205565b90505f8111156106bb575f3373ffffffffffffffffffffffffffffffffffffffff168260405161063690611156565b5f6040518083038185875af1925050503d805f8114610670576040519150601f19603f3d011682016040523d82523d5f602084013e610675565b606091505b50509050806106b9576040517f08c379a00000000000000000000000000000000000000000000000000000000081526004016106b090611282565b60405180910390fd5b505b8273ffffffffffffffffffffffffffffffffffffffff163373ffffffffffffffffffffffffffffffffffffffff168760ff167f0e442dd4f1838b2e8b53ecdf1b2b4733589797a1b975bf600f7dc05d2dfcbbd987895f0154602454604051610725939291906112a0565b60405180910390a45050505050600160268190555050565b60255f9054906101000a900473ffffffffffffffffffffffffffffffffffffffff1681565b60245481565b6001602654146107ad576040517f08c379a00000000000000000000000000000000000000000000000000000000081526004016107a490610f70565b60405180910390fd5b6002602681905550602560159054906101000a900460ff16610804576040517f08c379a00000000000000000000000000000000000000000000000000000000081526004016107fb9061131f565b60405180910390fd5b602454421015610849576040517f08c379a000000000000000000000000000000000000000000000000000000000815260040161084090611387565b60405180910390fd5b5f73ffffffffffffffffffffffffffffffffffffffff1660255f9054906101000a900473ffffffffffffffffffffffffffffffffffffffff1673ffffffffffffffffffffffffffffffffffffffff16036108d8576040517f08c379a00000000000000000000000000000000000000000000000000000000081526004016108cf906113ef565b60405180910390fd5b5f4790505f811161091e576040517f08c379a000000000000000000000000000000000000000000000000000000000815260040161091590611457565b60405180910390fd5b5f60255f9054906101000a900473ffffffffffffffffffffffffffffffffffffffff1690505f602560156101000a81548160ff0219169083151502179055505f60255f6101000a81548173ffffffffffffffffffffffffffffffffffffffff021916908373ffffffffffffffffffffffffffffffffffffffff1602179055505f6024819055505f602560146101000a81548160ff021916908360ff1602179055505f8173ffffffffffffffffffffffffffffffffffffffff16836040516109e490611156565b5f6040518083038185875af1925050503d805f8114610a1e576040519150601f19603f3d011682016040523d82523d5f602084013e610a23565b606091505b5050905080610a67576040517f08c379a0000000000000000000000000000000000000000000000000000000008152600401610a5e906114bf565b60405180910390fd5b8173ffffffffffffffffffffffffffffffffffffffff167f95681e512bc0fe659e195e06c283eada494316f3d801213e48e7101af92bf77084604051610aad9190610db8565b60405180910390a25050506001602681905550565b602560149054906101000a900460ff1681565b5f81600c8110610ae3575f80fd5b600302015f91509050805f015490806001015f9054906101000a900473ffffffffffffffffffffffffffffffffffffffff16908060020154905083565b600160265414610b65576040517f08c379a0000000000000000000000000000000000000000000000000000000008152600401610b5c90610f70565b60405180910390fd5b6002602681905550602560159054906101000a900460ff1615610bbd576040517f08c379a0000000000000000000000000000000000000000000000000000000008152600401610bb490611527565b60405180910390fd5b5f670de0b6b3a764000090505f5f90505b600c8160ff161015610c6357815f8260ff16600c8110610bf157610bf0610ef9565b5b600302015f01819055505f5f8260ff16600c8110610c1257610c11610ef9565b5b600302016001015f6101000a81548173ffffffffffffffffffffffffffffffffffffffff021916908373ffffffffffffffffffffffffffffffffffffffff1602179055508080600101915050610bce565b507fc6976b6410888b44c765590c8368eb4a60e0431d4ad683c8a53ea85a8479f22e60405160405180910390a1506001602681905550565b602560159054906101000a900460ff1681565b5f5ffd5b5f60ff82169050919050565b610cc781610cb2565b8114610cd1575f5ffd5b50565b5f81359050610ce281610cbe565b92915050565b5f60208284031215610cfd57610cfc610cae565b5b5f610d0a84828501610cd4565b91505092915050565b5f819050919050565b610d2581610d13565b82525050565b5f73ffffffffffffffffffffffffffffffffffffffff82169050919050565b5f610d5482610d2b565b9050919050565b610d6481610d4a565b82525050565b5f606082019050610d7d5f830186610d1c565b610d8a6020830185610d5b565b610d976040830184610d1c565b949350505050565b5f602082019050610db25f830184610d5b565b92915050565b5f602082019050610dcb5f830184610d1c565b92915050565b610dda81610cb2565b82525050565b5f602082019050610df35f830184610dd1565b92915050565b610e0281610d13565b8114610e0c575f5ffd5b50565b5f81359050610e1d81610df9565b92915050565b5f60208284031215610e3857610e37610cae565b5b5f610e4584828501610e0f565b91505092915050565b5f8115159050919050565b610e6281610e4e565b82525050565b5f602082019050610e7b5f830184610e59565b92915050565b5f82825260208201905092915050565b7f496e76616c6964206361726420696400000000000000000000000000000000005f82015250565b5f610ec5600f83610e81565b9150610ed082610e91565b602082019050919050565b5f6020820190508181035f830152610ef281610eb9565b9050919050565b7f4e487b71000000000000000000000000000000000000000000000000000000005f52603260045260245ffd5b7f5265656e7472616e7400000000000000000000000000000000000000000000005f82015250565b5f610f5a600983610e81565b9150610f6582610f26565b602082019050919050565b5f6020820190508181035f830152610f8781610f4e565b9050919050565b7f54696d657220657870697265642c20636c61696d207072697a652066697273745f82015250565b5f610fc2602083610e81565b9150610fcd82610f8e565b602082019050919050565b5f6020820190508181035f830152610fef81610fb6565b9050919050565b7f496e73756666696369656e74207061796d656e740000000000000000000000005f82015250565b5f61102a601483610e81565b915061103582610ff6565b602082019050919050565b5f6020820190508181035f8301526110578161101e565b9050919050565b7f4e487b71000000000000000000000000000000000000000000000000000000005f52601160045260245ffd5b5f61109582610d13565b91506110a083610d13565b92508282026110ae81610d13565b915082820484148315176110c5576110c461105e565b5b5092915050565b7f4e487b71000000000000000000000000000000000000000000000000000000005f52601260045260245ffd5b5f61110382610d13565b915061110e83610d13565b92508261111e5761111d6110cc565b5b828204905092915050565b5f81905092915050565b50565b5f6111415f83611129565b915061114c82611133565b5f82019050919050565b5f61116082611136565b9150819050919050565b7f5061796f7574206661696c6564000000000000000000000000000000000000005f82015250565b5f61119e600d83610e81565b91506111a98261116a565b602082019050919050565b5f6020820190508181035f8301526111cb81611192565b9050919050565b5f6111dc82610d13565b91506111e783610d13565b92508282019050808211156111ff576111fe61105e565b5b92915050565b5f61120f82610d13565b915061121a83610d13565b92508282039050818111156112325761123161105e565b5b92915050565b7f526566756e64206661696c6564000000000000000000000000000000000000005f82015250565b5f61126c600d83610e81565b915061127782611238565b602082019050919050565b5f6020820190508181035f83015261129981611260565b9050919050565b5f6060820190506112b35f830186610d1c565b6112c06020830185610d1c565b6112cd6040830184610d1c565b949350505050565b7f4e6f206163746976652067616d650000000000000000000000000000000000005f82015250565b5f611309600e83610e81565b9150611314826112d5565b602082019050919050565b5f6020820190508181035f830152611336816112fd565b9050919050565b7f54696d6572206e6f7420657870697265640000000000000000000000000000005f82015250565b5f611371601183610e81565b915061137c8261133d565b602082019050919050565b5f6020820190508181035f83015261139e81611365565b9050919050565b7f4e6f206275796572207265636f726465640000000000000000000000000000005f82015250565b5f6113d9601183610e81565b91506113e4826113a5565b602082019050919050565b5f6020820190508181035f830152611406816113cd565b9050919050565b7f4e6f2066756e64730000000000000000000000000000000000000000000000005f82015250565b5f611441600883610e81565b915061144c8261140d565b602082019050919050565b5f6020820190508181035f83015261146e81611435565b9050919050565b7f5072697a65207472616e73666572206661696c656400000000000000000000005f82015250565b5f6114a9601583610e81565b91506114b482611475565b602082019050919050565b5f6020820190508181035f8301526114d68161149d565b9050919050565b7f47616d65207374696c6c206163746976650000000000000000000000000000005f82015250565b5f611511601183610e81565b915061151c826114dd565b602082019050919050565b5f6020820190508181035f83015261153e81611505565b905091905056fea2646970667358221220bb741f2b209be4b5b04fe9ad3f951c497f0f4f749536222f4023e8b2df7eca0464736f6c634300081c0033",
  "linkReferences": {},
  "deployedLinkReferences": {},
  "immutableReferences": {},
  "inputSourceName": "project/contracts/CardTimerGame.sol",
  "buildInfoId": "solc-0_8_28-98772bf4f8f43f44bb2178cd8db3b212a74450df"
}